:200000000C9485000C94AD000C94AD000C94AD000C94AD000C94AD000C94AD000C94AD00A0
:200020000C94AD000C94AD000C94AD000C94AD000C94AD000C94AD000C94AD000C94AD0058
:200040000C9493020C94AD000C9403030C94DD020C94AD000C94AD000C94AD000C94AD00C5
:200060000C9435030C94AD0008000000BE922449123EABAAAA2ABECDCCCC4C3E00000080F0
:20008000BEABAAAAAA3E00000000BF000000803F0000000000084178D3BB4387D1133D19EA
:2000A0000E3CC3BD4282AD2B3E68EC8276BED98FE1A93E4C80EFFFBE01C4FF7F3F00000068
:2000C000000000000000250028002B0004040404040404040202020202020303030303036A
:2000E00001020408102040800102040810200102040810200000000800020100000304076A
:200100000000000000000000ED0D11241FBECFEFD8E0DEBFCDBF12E0A0E0B1E0E4E1F3E297
:2001200002C005900D92AA32B107D9F724E0AAE2B2E001C01D92A932B207E1F710E0C5E8CA
:20014000D0E004C02197FE010E947D11C438D107C9F70E94440C0C9488110C9400008091D4
:200160002A0290912B02019690932B0280932A02089508950895CF92DF92EF92FF920F9382
:200180001F93CF93DF936C017A018B01C0E0D0E0CE15DF0581F0D8016D918D01D601ED9123
:2001A000FC910190F081E02DC6010995892B11F02196EECF7E01C701DF91CF911F910F91AE
:2001C000FF90EF90DF90CF900895FC01538D448D252F30E0842F90E0821B930B541710F0CB
:2001E000CF96089501970895FC01918D828D981761F0828DDF01A80FB11D5D968C91928DFB
:200200009F5F9F73928F90E008958FEF9FEF0895FC01918D828D981731F0828DE80FF11DE9
:20022000858D90E008958FEF9FEF0895FC01918D228D892F90E0805C9F4F821B91098F7301
:200240009927089589EE92E00E94160121E0892B09F420E0822F0895FC01848DDF01A80FFA
:20026000B11DA35ABF4F2C91848D90E001968F739927848FA689B7892C93A089B1898C914D
:20028000837080648C93938D848D981306C00288F389E02D80818F7D80830895EF92FF92F4
:2002A0000F931F93CF93DF93EC0181E0888F9B8D8C8D981305C0E889F989808185FD26C0A4
:2002C000F62E0B8D10E00F5F1F4F0F731127E02E8C8DE8120CC00FB607FCFACFE889F9896B
:2002E000808185FFF5CFCE010E942C01F1CF8B8DFE01E80FF11DE35AFF4FF0829FB7F8945C
:200300000B8FEA89FB89808180620AC09FB7F894EE89FF896083E889F98980818370806410
:2003200080839FBF81E090E0DF91CF911F910F91FF90EF900895CF93DF93EC01888D88233F
:20034000C9F0EA89FB89808185FD05C0A889B9898C9186FD0FC00FB607FCF5CF808185FFB2
:20036000F2CFA889B9898C9185FFEDCFCE010E942C01E7CFDF91CF91089580E090E0892BA7
:2003800029F00E94220181110C940000089585ED8093BC008091BC0084FDFCCF1092C402EE
:2003A000089540914C02262F30E0240F311D21323105DCF42091C4022430C9F4FC0180E05D
:2003C00090E0861758F430914C022191DC01A45DBD4FA30FB11D2C930196F3CF80914C0222
:2003E000680F60934C0280E0089581E0089582E008950895E0917D0280917C02E81730F40C
:20040000F0E0E258FD4F808190E008958FEF9FEF089590917D0280917C02981750F4E92F95
:20042000F0E0E258FD4F208130E09F5F90937D0202C02FEF3FEFC901089580917C0290E0A1
:2004400020917D02821B91090895CF92DF92EF92FF920F931F93CF93DF937C01CB018A01B8
:200460002091C502222389F0EB016B01C40ED51ECC15DD0569F06991D701ED91FC9101909F
:20048000F081E02DC7010995F3CF642F0E94D101C801DF91CF911F910F91FF90EF90DF9049
:2004A000CF900895CF93DF931F92CDB7DEB769832091C5022223D1F02091E802203240F01B
:2004C00021E030E0FC013383228380E090E015C08091C602E82FF0E0E953FD4F9981908399
:2004E0008F5F8093C6028093E80205C061E0CE0101960E94D10181E090E00F90DF91CF9116
:200500000895089580E090E008950E9483112FB7F894609178027091790280917A029091F7
:200520007B022FBF08951F920F920FB60F9211242F933F938F939F93AF93BF9380917802BF
:2005400090917902A0917A02B0917B023091770223E0230F2D3720F40196A11DB11D05C0C5
:2005600026E8230F0296A11DB11D209377028093780290937902A0937A02B0937B02809140
:20058000730290917402A0917502B09176020196A11DB11D8093730290937402A093750200
:2005A000B0937602BF91AF919F918F913F912F910F900FBE0F901F9018951F920F920FB692
:2005C0000F9211242F933F934F935F936F937F938F939F93AF93BF93EF93FF9389EE92E0E4
:2005E0000E942C01FF91EF91BF91AF919F918F917F916F915F914F913F912F910F900FBE60
:200600000F901F9018951F920F920FB60F9211242F938F939F93EF93FF93E091F902F091DB
:20062000FA028081E091FF02F091000382FD12C09081809102038F5F8F732091030382170F
:2006400051F0E0910203F0E0E751FD4F958F8093020301C08081FF91EF919F918F912F9171
:200660000F900FBE0F901F9018951F920F920FB60F9211242F933F934F935F936F937F93AA
:200680008F939F93AF93BF93EF93FF938091B900887F803609F49CC068F5883209F45BC04F
:2006A00090F4803109F454C038F4882309F4F6C0883009F44DC0F6C0883109F44CC080327E
:2006C00009F45DC0EFC0803409F468C048F4803309F455C0883309F0E5C08093C202D8C0AF
:2006E000803509F44FC0883509F45DC0883409F0D9C0D6C0883909F4C7C0A8F4883709F4E1
:2007000067C038F4883609F463C0803709F460C0C9C0883809F4B8C0803909F45FC0803889
:2007200009F0C0C05BC0803B09F486C038F4803A09F466C0883A09F47FC0B4C0803C09F4F3
:20074000A7C0883C09F4A4C0883B09F48AC0AAC080919F0210C09091C1028091C0029817B1
:2007600070F5E091C10281E08E0F8093C102F0E0E056FD4F80818093BB0085EC86C0809321
:20078000C2028EC0E091C10281E08E0F8093C1028091BB00F0E0E056FD4F80839091C1023A
:2007A0008091C0026EC0E091C10281E08E0F8093C1028091BB00F0E0E056FD4F80838091FE
:2007C000C30281116DC081E080939E0284EA61C083E08093C40210926E02CFCF80916E0285
:2007E000803208F051C0E0916E0281E08E0F80936E028091BB00F0E0E25BFD4F8083BDCF28
:2008000085EC8093BC001092C40280916E02803230F4E0916E02F0E0E25BFD4F108260911C
:200820006E0270E0E0916F02F09170028EE492E0099510926E0236C084E08093C4021092BA
:200840004D0210924C02E0917102F0917202099580914C02811105C081E080934C021092C8
:200860002C02E0914D0281E08E0F80934D02F0E0E45DFD4F80818093BB0090914D0280917D
:200880004C02981708F479CF85E88093BC000AC085EC8093BC001092C40204C01092C2023F
:2008A0000E94C701FF91EF91BF91AF919F918F917F916F915F914F913F912F910F900FBE02
:2008C0000F901F9018959091C4029111FCCF91E09093C4029093C3022FEF2093C202109250
:2008E000C102260F2093C00290939F0290919F02880F892B80939F0280919E02813061F44F
:2009000010929E0280919F028093BB008091BC0083FDF8CF85EC01C085EE8093BC0080917C
:20092000C4028130E1F38091C102861710F46091C102A0EAB2E0EEE7F2E080E0861721F072
:200940009D9191938F5FFACF08953F924F925F926F927F928F929F92AF92BF92CF92DF9286
:20096000EF92FF920F931F93CF93DF93CDB7DEB72E970FB6F894DEBF0FBECDBF80912504DE
:2009800090912604009709F49DC3E0912304F09124049F01245031093093240420932304C4
:2009A00040815181628173814D835E836F837887215E334030F46DE174E070932404609355
:2009C000230401979093260480932504C090BC03D090BD03E090BE03F090BF032091B803C1
:2009E0003091B9034091BA035091BB03C701B6010E94B4104B015C012D813E81B90180E038
:200A000090E00E94AD0F9B01AC01C501B4010E949B0E6093BC037093BD038093BE0390938D
:200A2000BF03A70196010E949A0E69837A838B839C83C090C403D090C503E090C603F0905D
:200A4000C7032091C0033091C1034091C2035091C303C701B6010E94B4104B015C014F8138
:200A60005885BA0180E090E00E94AD0F9B01AC01C501B4010E949B0E6093C4037093C5031C
:200A80008093C6039093C703A70196010E949A0E69877A878B879C87C090CC03D090CD038F
:200AA000E090CE03F090CF03C092C803D092C903E092CA03F092CB0369817A818B819C81BB
:200AC00090582BE73FE14BE75EE30E94B4104B015C0123E430E742E05FE3C701B6010E94D7
:200AE000B4109B01AC01C501B4010E949B0E9B01AC016093CC037093CD038093CE0390933E
:200B0000CF03C701B6010E949B0E162F7E87082F392E8091A6039091A7038230910509F487
:200B20007CC028F4009759F00197C1F047C18330910509F4ABC0049709F423C13FC10E945D
:200B40008702613D77408105910508F437C161E070E07093A7036093A60330C12091A80380
:200B60003091A9034091AA035091AB03612F7E85802F932D0E945F1018163CF520E030E079
:200B800048E454E4612F7E85802F932D0E94070F87FD05C050E040E038E424E404C0512F36
:200BA0004E85302F232D852F942FA32FB22F8093A8039093A903A093AA03B093AB0382E0C9
:200BC00090E09093A7038093A6030E948702C090B403D090B503E090B603F090B703DC0192
:200BE000CB018C199D09AE09BF09813D9740A105B10580F01092AC031092AD031092AE0308
:200C00001092AF031092B0031092B1031092B2031092B3030E94BA0BD1C02091A803309111
:200C2000A9034091AA035091AB03612F7E85802F932D0E94070F87FF07C043E050E05093BE
:200C4000A7034093A603BAC020E030E048E454E4612F7E85802F932D0E94070F87FD05C07D
:200C600050E040E038E424E404C0512F4E85302F232D852F942FA32FB22F8093A80390932F
:200C8000A903A093AA03B093AB0398C020E030E040EF51E4612F7E85802F932D0E949B0EBE
:200CA0002091A8033091A9034091AA035091AB030E94070F87FF5EC0812F9E85A02FB32D80
:200CC0008093B0039093B103A093B203B093B30364E070E07093A7036093A6030E9487028E
:200CE000C090B403D090B503E090B603F090B7036C197D098E099F090E94AD0F6B017C01E1
:200D000020E030E0A9010E94070F882331F12CEC3CEC4CEC5EE36091AC037091AD03809179
:200D2000AE039091AF030E94B4104B015C012AE939E949E15FE3C701B6010E94B4109B01FE
:200D4000AC01C501B4010E949B0E6093AC037093AD038093AE039093AF030E948702609314
:200D6000B4037093B5038093B6039093B70371E07D8725C082E090E09093A7038093A603C3
:200D80001DC00E948702C090B403D090B503E090B603F090B703DC01CB018C199D09AE091E
:200DA000BF09893C9105A105B10508F433CF21E030E03093A7032093A6032CCF1D86C090EE
:200DC000AC03D090AD03E090AE03F090AF0320E030E0A901C701B6010E94070F882309F468
:200DE000E3C0A701960160E070E080E89FE30E940C0F20E030E04AE754E40E94B41020E0FB
:200E000030E040E752E40E94B41020E030E0A9010E945F1018160CF0C7C042E050E050934E
:200E200093034093920329813A814B815C81CA01B9010E94B4102091D3033091D4034091CB
:200E4000D5035091D6030E949B0E6B017C016093D3037093D4038093D5039093D603298594
:200E60003A854B855C85CA01B9010E94B4102091D7033091D8034091D9035091DA030E94E3
:200E80009B0E2B013C016093D7037093D8038093D9039093DA038091DC039091DD03A09184
:200EA000DE03B091DF03BC01CD016F5F7F4F8F4F9F4F6093DC037093DD038093DE0390936F
:200EC000DF035D85552309F497C02091DB032F5F2093DB03233009F08FC00E94AD0F4B018F
:200EE0005C019B01AC01C301B2010E940C0F0E946C102B013C01A5019401C701B6010E9435
:200F00000C0F0E946C106B017C0120E030E048EC52E4C301B2010E94B410A70196010E9477
:200F20000C0F6B017C0120E030E044E852E40E945F10181634F4C701B6010E947E0F625470
:200F400011C020E030E048E452E4C701B6010E945F10181634F4C701B6010E947E0F625305
:200F600001C060E01092DC031092DD031092DE031092DF031092D7031092D8031092D903EF
:200F80001092DA031092D3031092D4031092D5031092D6031092DB03E62FF0E0EB57FE4FF8
:200FA00080818093E00328C08091920390919303029711F561E070E07093930360939203A4
:200FC0001092DC031092DD031092DE031092DF031092D7031092D8031092D9031092DA0311
:200FE0001092D3031092D4031092D5031092D6031092DB031092E0038091940390919503A5
:2010000082309105F9F08330910589F1019709F04CC088E192E00E940F0A2D813E81B90182
:2010200080E090E04AE00E94110A8AE092E00E940F0A4F815885BA0180E090E04AE00E945E
:20104000110A2FC088E192E00E940F0A42E069817A818B819C810E94E80A8AE092E00E94AE
:201060000F0A42E069857A858B859C8518C088E192E00E940F0A42E0612F7E85802F932D85
:201080000E94E80A8AE092E00E940F0A6091A8037091A9038091AA039091AB0342E00E948B
:2010A000E80A88EF91E00E94FD095D85552309F465CCE0912704F0912804309709F45ECCEF
:2010C00009955CCC2E960FB6F894DEBF0FBECDBFDF91CF911F910F91FF90EF90DF90CF9043
:2010E000BF90AF909F908F907F906F905F904F903F90089591E09093C50297E59093E702E9
:201100001092C6021092E802682F86E893E00E94520280E00E94870961E087E50E94630423
:2011200010927D0280937C0286E893E00E9409020895EF92FF920F931F93CF93DF93CDB714
:20114000DEB7C054D1090FB6F894DEBF0FBECDBF82E00E947A08182F84E00E947A08181B3D
:201160001F7009F480C081E08093C50287E58093E7021092C6021092E80265E086E893E0E4
:201180000E94520280E00E948709612F660F660F613208F060E287E50E946304F82E109243
:2011A0007D0280937C0200E080917D02F81681F0EE24E394E00E86E893E00E940902E1E06A
:2011C000F0E0EC0FFD1FE00FF11D80830E2DECCFA0912304B0912404409121045091220474
:2011E000FE01319660E0208130E0322F22278181282B828190E0982F88277381872B149600
:2012000074E0A132B70711F4A1EEB3E011963C932E9313969C938E9312978091250490918E
:2012200026048031910549F44C5F5F4F84E04132580769F441EE53E00AC09C012F5F3F4F2F
:201240003093260420932504892B09F4AD016F5F34961613C8CFB0932404A0932304509366
:20126000220440932104C05CDF4F0FB6F894DEBF0FBECDBFDF91CF911F910F91FF90EF9091
:20128000089590E0FC01EC50FF4F2491FC01E052FF4F3491FC01E453FF4FE491EE23B1F119
:2012A000222339F1233091F038F42130A9F0223001F584B58F7D12C0273091F02830A1F0B5
:2012C0002430B9F4809180008F7D03C0809180008F77809380000DC084B58F7784BD09C06D
:2012E0008091B0008F7703C08091B0008F7D8093B000F0E0EE0FFF1FEE53FF4FA591B491DF
:201300008FB7F894EC91E32BEC938FBF0895282F3091E802313208F04AC08091C402811136
:20132000FCCF9091E70242E04093C4022093C3022FEF2093C2021092C1023093C002E7EC53
:20134000F2E0A0EAB2E020E0321721F041914D932F5FFACF10929F0220919F02990F922B42
:2013600090939F0290919E02913061F410929E0290919F029093BB009091BC0093FDF8CFBC
:2013800095EC01C095EE9093BC009091C4029230E1F39091C2029F3F79F08091C202803279
:2013A00041F08091C202803331F084E005C081E003C082E001C083E01092C6021092E8028A
:2013C0001092C5020895CF93C62F91E09093C50297E59093E7021092C6021092E802682F40
:2013E00086E893E00E9452026C2F86E893E00E94520281E0CF910C948709009769F0FC01C6
:2014000001900020E9F73197AF01481B590BBC0189EE92E00C94BB0080E090E008950C94EE
:20142000FD098F929F92AF92BF920F931F93CF93DF93CDB7DEB7A1970FB6F894DEBF0FBE8E
:20144000CDBF19A2423008F44AE08E010F5D1F4F842E912CA12CB12CA50194010E945B11E2
:20146000E62FB901CA0101501109EA3014F4E05D01C0E95CD801EC93232B242B252B61F765
:20148000C8010E94FD09A1960FB6F894DEBF0FBECDBFDF91CF911F910F91BF90AF909F9080
:2014A0008F9008958F929F92AF92BF92CF92DF92EF92FF920E948702C0909E03D0909F038A
:2014C000E090A003F090A103DC01CB018C199D09AE09BF09853F9140A105B10508F46FC046
:2014E0008090BC039090BD03A090BE03B090BF03C090C403D090C503E090C603F090C70388
:20150000A7019601C501B4010E949A0E20E038EB48E857E40E945F10181634F48091D003EE
:201520008F3010F48F5F13C0A5019401C701B6010E949A0E20E038EB48E857E40E945F1084
:2015400018169CF58091D003882379F181508093D0038091D00320E1829FC001112460912F
:20156000D103682B89E00E94E3090E9487026093A2037093A3038093A4039093A50380910B
:20158000940390919503892B81F08BE192E00E940F0A6091D00370E080E090E04AE00E948D
:2015A000110A88EF91E00E94FD090E94870260939E0370939F038093A0039093A103FF9010
:2015C000EF90DF90CF90BF90AF909F908F9008958F929F92AF92BF92CF92DF92EF92FF927D
:2015E0000F931F93CF93DF936B017C01142F9B01AC010E942111882319F08EE192E027C0FE
:2016000046015701E894B7F82FEF3FEF4FE75FE7C501B4010E94211181110DC02FEF3FEF3E
:201620004FE75FE7C501B4010E94070F18161CF482E292E00CC02FEF3FEF4FE75FE4C7018E
:20164000B6010E945F10181684F486E292E0DF91CF911F910F91FF90EF90DF90CF90BF90F7
:20166000AF909F908F900C94FD092FEF3FEF4FE75FECC701B6010E94070F87FDE6CF20E0FA
:2016800030E0A901C701B6010E94070F87FF0BC06DE289EE92E00E944E01EC01F7FAF0947D
:2016A000F7F8F09402C0C0E0D0E000E060E070E080E09FE3101741F020E030E040E251E494
:2016C0000E940C0F0F5FF6CFA70196010E949B0E6B017C010E947E0F4B015C014AE00E9403
:2016E000110AC80FD91F1123B9F1C501B4010E94AD0F9B01AC01C701B6010E949A0E6B01CB
:201700007C016EE289EE92E00E944E01C80FD91F20E030E040E251E4C701B6010E94B41007
:201720004B015C010E947E0F6B01E12CF12C4AE0C701B6010E94110AC80FD91FC701B60187
:201740000E94AD0F9B01AC01C501B4010E949A0E6B017C011150E1F6CE01DF91CF911F91AD
:201760000F91FF90EF90DF90CF90BF90AF909F908F9008958F929F92AF92BF92CF92DF92BE
:20178000EF92FF928090B0039090B103A090B203B090B30320E030E0A901C501B4010E94EE
:2017A0005F101816B4F5C090AC03D090AD03E090AE03F090AF0320E030E0A901C701B60148
:2017C0000E945F1018162CF523E333E343E35FE3C501B4010E94B4104B015C0120E030E08B
:2017E00040E251E4C701B6010E940C0F9B01AC01C501B4010E940C0F9B01AC016091A803F0
:201800007091A9038091AA039091AB030E949A0E0EC024EA30E74DE75FE36091A80370913E
:20182000A9038091AA039091AB030E94B4106093A8037093A9038093AA039093AB0320E02B
:2018400030E040EA51E46091A8037091A9038091AA039091AB030E94070F87FF0CC080E0D9
:2018600090E0A0EAB1E48093A8039093A903A093AA03B093AB03FF90EF90DF90CF90BF9050
:20188000AF909F908F900895789484B5826084BD84B5816084BD85B5826085BD85B58160E2
:2018A00085BD80916E00816080936E00109281008091810082608093810080918100816067
:2018C00080938100809180008160809380008091B10084608093B1008091B0008160809350
:2018E000B00080917A00846080937A0080917A00826080937A0080917A00816080937A0049
:2019000080917A00806880937A001092C100E091F902F091FA0282E08083E091F502F0912D
:20192000F6021082E091F702F091F80280E1808310920103E091FD02F091FE0286E08083D4
:20194000E091FB02F091FC02808180618083E091FB02F091FC02808188608083E091FB026E
:20196000F091FC02808180688083E091FB02F091FC0280818F7D808310929503109294038C
:2019800010927D0210927C021092C6021092E8021092C40281E08093C30210929E0282E1CA
:2019A0000E94410983E10E9441098091B9008E7F8093B9008091B9008D7F8093B90088E43A
:2019C0008093B80085E48093BC0089EB90E090937202809371028AEB90E090937002809376
:2019E0006F028CE08093B8008FEF0E947A08813109F0E3C062E086E00E94E30987E00E9410
:201A00007A08682F636087E00E94E30987E00E947A08837E682F646087E00E94E3096FEFBB
:201A200089E00E94E30987E00E947A08682F606487E00E94E30963E086E00E94E30980918C
:201A4000D00320E1829FC00111246091D103682B89E00E94E30983E393E3A3E7BFE3809331
:201A6000B8039093B903A093BA03B093BB031092BC031092BD031092BE031092BF0380933E
:201A8000C0039093C103A093C203B093C3031092C4031092C5031092C6031092C70381E090
:201AA00090E0909393038093920387E090E09093D2038093D1036091D00380E1689FB001C2
:201AC0001124676089E00E94E3098FEA90E090932804809327040E9487020E9499080E948D
:201AE000A5040E94520A89EE92E00E941601892B09F460C089EE92E00E94F400813419F08F
:201B0000823451F057C080E091E00E94FD0988EF91E00E94FD094EC00E9499080E94A50412
:201B20000E94520A8BEF91E00E940F0AC090AC03D090AD03E090AE03F090AF0320E030E08F
:201B4000A901C701B6010E94070F8823A9F0A701960160E070E080E89FE30E940C0F20E0EA
:201B600030E04AE754E40E94B41020E030E040E752E40E94B41003C060E070E0CB0142E072
:201B80000E94E80A8AE092E00E940F0A8CE092E00E940F0A6091E00370E080E090E04AE063
:201BA0000E94110A86E192E00E940F0A89EF91E00E940F0A0E94BD0190CF809194039091A8
:201BC0009503892B49F084ED91E00E94FD0988EF91E00E94FD09FFCFFECFE9EEF2E013828D
:201BE000128288EE93E0A0E0B0E084839583A683B78324EB31E03183208325EC30E0358782
:201C0000248724EC30E03787268720EC30E0318B208B21EC30E0338B228B22EC30E0358BA5
:201C2000248B26EC30E0378B268B118E128E138E148EE6E8F3E01382128284839583A683CC
:201C4000B78386EC91E091838083E2E9F3E01182108214821582168217821086118612866A
:201C600013861486158616861786108A118A128A138A158A148A80E090E0A0EAB1E4868BB2
:201C8000978BA08FB18F128E138E148E158E168E178E10A211A212A213A214A215A216A2F1
:201CA00017A210A611A612A613A614A615A616A617A610AA11AA12AA13AA14AA15AA16AA74
:201CC00017AA10AE11AE88E086AF8FE090E09093D2038093D1031092D3031092D4031092D8
:201CE000D5031092D6031092D7031092D8031092D9031092DA031092DB031092DC031092F8
:201D0000DD031092DE031092DF031092E00381EE93E0909322048093210490932404809396
:201D200023041092260410922504109228041092270408955058BB27AA270E94B20E0C9450
:201D400025100E94171038F00E941E1020F039F49F3F19F426F40C9414100EF4E095E7FB2E
:201D60000C940E10E92F0E94361058F3BA17620773078407950720F079F4A6F50C9458105F
:201D80000EF4E0950B2EBA2FA02D0B01B90190010C01CA01A0011124FF27591B99F0593F1D
:201DA00050F4503E68F11A16F040A22F232F342F4427585FF3CF469537952795A795F0405F
:201DC0005395C9F77EF41F16BA0B620B730B840BBAF09150A1F0FF0FBB1F661F771F881FAF
:201DE000C2F70EC0BA0F621F731F841F48F4879577956795B795F7959E3F08F0B0CF939529
:201E0000880F08F09927EE0F9795879508950E94EA0F08F481E008950E94200F0C94251056
:201E20000E941E1058F00E94171040F029F45F3F29F00C940E1051110C9459100C941410D0
:201E40000E94361068F39923B1F3552391F3951B550BBB27AA2762177307840738F09F5F7C
:201E60005F4F220F331F441FAA1FA9F335D00E2E3AF0E0E832D091505040E695001CCAF76B
:201E80002BD0FE2F29D0660F771F881FBB1F261737074807AB07B0E809F0BB0B802DBF0155
:201EA000FF2793585F4F3AF09E3F510578F00C940E100C9459105F3FE4F3983ED4F38695AA
:201EC00077956795B795F7959F5FC9F7880F911D9695879597F90895E1E0660F771F881F38
:201EE000BB1F621773078407BA0720F0621B730B840BBA0BEE1F88F7E09508950E943E10DC
:201F000088F09F5798F0B92F9927B751B0F0E1F0660F771F881F991F1AF0BA95C9F714C053
:201F2000B13091F00E945810B1E008950C945810672F782F8827B85F39F0B93FCCF3869501
:201F400077956795B395D9F73EF490958095709561957F4F8F4F9F4F0895E89409C097FBEC
:201F60003EF490958095709561957F4F8F4F9F4F9923A9F0F92F96E9BB279395F6958795B3
:201F800077956795B795F111F8CFFAF4BB0F11F460FF1BC06F5F7F4F8F4F9F4F16C0882344
:201FA00011F096E911C0772321F09EE8872F762F05C0662371F096E8862F70E060E02AF0B8
:201FC0009A95660F771F881FDAF7880F9695879597F90895990F0008550FAA0BE0E8FEEFC6
:201FE00016161706E807F907C0F012161306E407F50798F0621B730B840B950B39F40A26C2
:2020000061F0232B242B252B21F408950A2609F4A140A6958FEF811D811D089597F99F679A
:2020200080E870E060E008959FEF80EC089500240A941616170618060906089500240A94DD
:2020400012161306140605060895092E0394000C11F4882352F0BB0F40F4BF2B11F460FF65
:2020600004C06F5F7F4F8F4F9F4F089557FD9058440F551F59F05F3F71F04795880F97FB47
:20208000991F61F09F3F79F087950895121613061406551FF2CF4695F1DF08C016161706EB
:2020A0001806991FF1CF86957105610508940895E894BB2766277727CB0197F908950E9436
:2020C000EA0F08F48FEF089516F00C9426110C94141068940C940E100E943E10A8F399234E
:2020E000C1F3AEF3DF93CF931F930F93FF92C92FDD2788232AF02197660F771F881FDAF7D6
:2021000020E030E040E85FEB9FE3883920F0803E38F021968F770E949B0EE8E6F0E004C09A
:202120000E949B0EE5E9F0E00E9434118B01BE01EC01FB2E6F5771097595771F880B990B57
:202140000E94AF0F28E132E741E35FE30E94C710AF2D9801AE01FF900F911F91CF91DF914B
:202160000E94B20E0C9425100E94C7100C9425100E94171038F00E941E1020F0952311F050
:202180000C940E100C94141011240C9459100E94361070F3959FC1F3950F50E0551F629F03
:2021A000F001729FBB27F00DB11D639FAA27F00DB11DAA1F649F6627B00DA11D661F829F58
:2021C0002227B00DA11D621F739FB00DA11D621F839FA00D611D221F749F3327A00D611D86
:2021E000231F849F600D211D822F762F6A2F11249F5750409AF0F1F088234AF0EE0FFF1FBA
:20220000BB1F661F771F881F91505040A9F79E3F510580F00C940E100C9459105F3FE4F332
:20222000983ED4F3869577956795B795F795E7959F5FC1F7FE2B880F911D9695879597F98F
:2022400008950E94EA0F880B990B08959F3F31F0915020F4879577956795B795880F911DC9
:202260009695879597F90895DF93CF931F930F93FF92EF92DF927B018C01689406C0DA2E6C
:20228000EF010E94C710FE01E894A5912591359145915591A6F3EF010E94B20EFE0197016A
:2022A000A801DA9469F7DF90EF90FF900F911F91CF91DF910895A1E21A2EAA1BBB1BFD0109
:2022C0000DC0AA1FBB1FEE1FFF1FA217B307E407F50720F0A21BB30BE40BF50B661F771F74
:2022E000881F991F1A9469F760957095809590959B01AC01BD01CF010895EE0FFF1F059019
:20230000F491E02D099481E090E0F8940C948811F894FFCF7B226E616D65223A224D6178BC
:2023200033303130305F4F78696D65746572222C226C6162656C73223A5B2248656172744D
:202340005F72617465222C224F787967656E225D2C22646174615F72616E6765223A5B5BA3
:20236000302C3135305D2C5B302C3130305D5D2C2273616D706C696E675F72617465223AD0
:20238000312C2256657273696F6E223A22312E305F416C706861227D00646464646363632E
:2023A00063636362626262626161616161616060606060605F5F5F5F5F5F5E5E5E5E5E5D17
:2023C0005D5D5D5D000000004E01BB00E5009B011601F400080100000000520225028202EB
:2023E000F9011D020902FA014661696C656420746F20696E697469616C697A6520746865C3
:202400002048524D2073656E736F72000D0A007B2248656172745F72617465223A002C00C0
:20242000224F787967656E223A007D00523A00493A006E616E00696E66006F766600FFFF55
:20244000FFFFFFFFFFFFFFFFFFFFFFFFFFFFFFFFFFFFFFFFFFFFFFFFFFFFFFFFFFFFFFFF9C
:20246000FFFFFFFFFFFFFFFFFFFFFFFFFFFFFFFFFFFFFFFFFFFFFFFFFFFFFFFFFFFFFFFF7C
:20248000FFFFFFFFFFFFFFFFFFFFFFFFFFFFFFFFFFFFFFFFFFFFFFFFFFFFFFFFFFFFFFFF5C
:2024A000FFFFFFFFFFFFFFFFFFFFFFFFFFFFFFFFFFFFFFFFFFFFFFFFFFFFFFFFFFFFFFFF3C
:207800000C94343C0C94513C0C94513C0C94513C0C94513C0C94513C0C94513C0C94513C1D
:207820000C94513C0C94513C0C94513C0C94513C0C94513C0C94513C0C94513C0C94513CE0
:207840000C94513C0C94513C0C94513C0C94513C0C94513C0C94513C0C94513C0C94513CC0
:207860000C94513C0C94513C11241FBECFEFD8E0DEBFCDBF11E0A0E0B1E0ECE9FFE702C07E
:2078800005900D92A230B107D9F712E0A2E0B1E001C01D92AD30B107E1F70E942D3D0C94CC
:2078A000CC3F0C94003C982F9595959595959595905D8F708A307CF0282F295A8091C000B5
:2078C00085FFFCCF9093C6008091C00085FFFCCF2093C6000895282F205DF0CF982F8091CF
:2078E000C00085FFFCCF9093C6000895EF92FF920F931F93EE24FF2487018091C00087FD7B
:2079000017C00894E11CF11C011D111D81E4E81682E4F8068FE0080780E0180770F3E09106
:207920000401F091050109958091C00087FFE9CF8091C6001F910F91FF90EF9008950E949A
:20794000763C982F8091C00085FFFCCF9093C60091362CF490330CF09053892F08959755DB
:20796000892F08951F930E949F3C182F0E949F3C1295107F810F1F9108951F93182F882308
:2079800021F00E94763C1150E1F71F9108951F93182F0E94763C803249F0809103018F5FC1
:2079A000809303018530C1F01F9108958091C00085FFFCCF84E18093C6008091C00085FF4A
:2079C000FCCF1093C6008091C00085FFFCCF80E18093C6001F910895E0910401F0910501CF
:2079E00009951F9108950E94763C803241F0809103018F5F80930301853081F00895809177
:207A0000C00085FFFCCF84E18093C6008091C00085FFFCCF80E18093C6000895E0910401AC
:207A2000F09105010995089540E951E08823A1F02D9A28EE33E0FA013197F1F72150304072
:207A4000D1F72D9828EE33E0FA013197F1F721503040D1F7815061F708953F924F925F92B3
:207A60006F927F928F929F92AF92BF92CF92DF92EF92FF920F931F93CF93DF93000080E1A3
:207A80008093C4001092C50088E18093C10086E08093C2005098589A259A81E00E94143D43
:207AA00024E1F22E9EE1E92E85E9D82E0FE0C02E10E1B12EAA24A394B1E49B2EA6E58A2E44
:207AC000F2E57F2EE0E26E2E79E4572E63E5462E50E5352E0E94763C8033B1F18133B9F187
:207AE000803409F46FC0813409F476C0823409F485C0853409F488C0803531F1823521F128
:207B0000813511F1853509F485C0863509F48DC0843609F496C0843709F403C1853709F46A
:207B200072C1863709F466C0809103018F5F80930301853079F6E0910401F0910501099559
:207B40000E94763C803351F60E94F33CC3CF0E94763C803249F78091C00085FFFCCFF0928C
:207B6000C6008091C00085FFFCCF9092C6008091C00085FFFCCF8092C6008091C00085FFEA
:207B8000FCCF7092C6008091C00085FFFCCF6092C6008091C00085FFFCCF5092C6008091A1
:207BA000C00085FFFCCF4092C6008091C00085FFFCCF3092C6008091C00085FFFCCFB09214
:207BC000C60088CF0E94763C863808F4BDCF0E94763C0E94F33C7ECF0E94763C803809F473
:207BE0009CC0813809F40BC1823809F43CC1883909F48FC080E00E94C73C6CCF84E10E949F
:207C0000BD3C0E94F33C66CF85E00E94BD3C0E94F33C60CF0E94763C809306010E94763CA3
:207C2000809307010E94F33C55CF0E94763C803309F41DC183E00E94BD3C80E00E94C73C4F
:207C400049CF0E94763C809309020E94763C8093080280910C028E7F80930C020E94763C88
:207C6000853409F415C18091080290910902892B89F000E010E00E94763CF801E85FFE4F53
:207C800080830F5F1F4F80910802909109020817190788F30E94763C803209F045CF8091E0
:207CA0000C0280FF01C16091060170910701660F771F7093070160930601A0910802B091E8
:207CC00009021097C9F0E8E0F1E09B01AD014E0F5F1FF999FECF32BD21BD819180BDFA9A6C
:207CE000F99A2F5F3F4FE417F50799F76A0F7B1F70930701609306018091C00085FFFCCF16
:207D0000F092C6008091C00085FFFCCFB092C600E1CE83E00E94C73CDDCE82E00E94C73C8A
:207D2000D9CE0E94763C809309020E94763C809308028091060190910701880F991F909306
:207D40000701809306010E94763C853409F4A6C080910C028E7F80930C020E94763C80323E
:207D600009F0B8CE8091C00085FFFCCFF092C600609108027091090261157105B9F140E05F
:207D800050E080910C02A82FA170B82FB27011C0BB2309F45CC0E0910601F0910701319613
:207DA000F0930701E09306014F5F5F4F46175707E8F4AA2369F3F999FECF209106013091CA
:207DC000070132BD21BDF89A90B58091C00085FFFCCF9093C6002F5F3F4F30930701209354
:207DE00006014F5F5F4F4617570718F38091C00085FDE5CE8091C00085FFF8CFE0CE81E029
:207E00000E94C73C67CE0E94763C803209F08CCE8091C00085FFFCCFF092C6008091C000F6
:207E200085FFFCCFE092C6008091C00085FFFCCFD092C6008091C00085FFFCCFC092C6003B
:207E40008091C00085FFFCCFB092C60043CEE0910601F091070194918091C00085FFFCCFA3
:207E60009093C6009CCF80E10E94C73C33CE0E94763C0E94763C182F0E94763C112309F433
:207E800083C0113009F484C08FE00E94C73C22CE80910C02816080930C02E5CE80910C0226
:207EA000816080930C0259CF809107018823880F880B8A2180930B0280910601909107019E
:207EC000880F991F90930701809306018091080280FF09C0809108029091090201969093AA
:207EE000090280930802F894F999FECF1127E0910601F0910701C8E0D1E0809108029091A1
:207F00000902103091F40091570001700130D9F303E000935700E895009157000170013067
:207F2000D9F301E100935700E895099019900091570001700130D9F301E000935700E8954C
:207F40001395103498F011270091570001700130D9F305E000935700E8950091570001707A
:207F60000130D9F301E100935700E8953296029709F0C7CF103011F00296E5CF11248091F8
:1E7F8000C00085FFB9CEBCCE8EE10E94C73CA2CD85E90E94C73C9ECDF894FFCF8000B3
:00000001FF
