:200000000C9462000C948A000C948A000C948A000C948A000C948A000C948A000C948A00B8
:200020000C948A000C948A000C948A000C948A000C948A000C948A000C948A000C948A0070
:200040000C94ED030C948A000C945D040C9437040C948A000C948A000C948A000C948A0062
:200060000C948A000C948A00000000002300260029000000000800020100000304070000A1
:2000800000000000000000000000250028002B0000000000240027002A000404040404045B
:2000A0000404020202020202030303030303010204081020408001020408102001020408CD
:2000C00010208F0411241FBECFEFD8E0DEBFCDBF21E0A4E2B1E001C01D92A33DB207E1F7B3
:2000E00011E0A0E0B1E0E8EAF1E102C005900D92A432B107D9F710E0C2E6D0E004C0219742
:20010000FE010E94D006C136D107C9F70E94D3040C94D2080C94000090E0FC01E255FF4F54
:200120002491FC01E656FF4F8491882399F090E0880F991FFC01E057FF4FA591B491FC0181
:20014000EA57FF4F859194918FB7F894EC91E22BEC938FBF0895833081F028F4813099F095
:200160008230A1F008958730A9F08830B9F08430D1F4809180008F7D03C0809180008F777E
:2001800080938000089584B58F7702C084B58F7D84BD08958091B0008F7703C08091B000C0
:2001A0008F7D8093B00008951F93CF93DF93282F30E0F901EE58FF4F8491F901E255FF4FC4
:2001C000D491F901E656FF4FC491CC23C1F0162F81110E94AB00EC2FF0E0EE0FFF1FEA57D6
:2001E000FF4FA591B4919FB7F894111104C08C91D095D82302C0EC91DE2BDC939FBFDF916C
:20020000CF911F9108953FB7F89480912A0190912B01A0912C01B0912D0126B5A89B05C076
:200220002F3F19F00196A11DB11D3FBFBA2FA92F982F8827820F911DA11DB11DBC01CD0199
:2002400042E0660F771F881F991F4A95D1F708958F929F92AF92BF92CF92DF92EF92FF9206
:200260006B017C010E9403014B015C01C114D104E104F104F1F00E940301DC01CB018819F1
:200280009909AA09BB09883E9340A105B10570F321E0C21AD108E108F10888EE880E83E0E6
:2002A000981EA11CB11CC114D104E104F10419F7DDCFFF90EF90DF90CF90BF90AF909F9025
:2002C0008F900895CF92DF92EF92FF920F931F93CF93DF936C017A018B01C0E0D0E0CE15AF
:2002E000DF0581F0D8016D918D01D601ED91FC910190F081E02DC6010995892B11F0219682
:20030000EECF7E01C701DF91CF911F910F91FF90EF90DF90CF900895089580E090E0089536
:20032000FC01538D448D252F30E0842F90E0821B930B541710F0CF96089501970895FC01AE
:20034000918D828D981761F0828DDF01A80FB11D5D968C91928D9F5F9F73928F90E008958F
:200360008FEF9FEF0895FC01918D828D981731F0828DE80FF11D858D90E008958FEF9FEF9B
:200380000895FC01918D228D892F90E0805C9F4F821B91098F73992708958EE291E00E94EB
:2003A000C10121E0892B09F420E0822F0895FC01848DDF01A80FB11DA35ABF4F2C91848D2F
:2003C00090E001968F739927848FA689B7892C93A089B1898C91837080648C93938D848D6C
:2003E000981306C00288F389E02D80818F7D80830895EF92FF920F931F93CF93DF93EC01A5
:2004000081E0888F9B8D8C8D981305C0E889F989808185FD26C0F62E0B8D10E00F5F1F4FCF
:200420000F731127E02E8C8DE8120CC00FB607FCFACFE889F989808185FFF5CFCE010E94D7
:20044000D701F1CF8B8DFE01E80FF11DE35AFF4FF0829FB7F8940B8FEA89FB898081806295
:200460000AC09FB7F894EE89FF896083E889F98980818370806480839FBF81E090E0DF9181
:20048000CF911F910F91FF90EF900895CF93DF93EC01888D8823C9F0EA89FB89808185FD4D
:2004A00005C0A889B9898C9186FD0FC00FB607FCF5CF808185FFF2CFA889B9898C9185FFAF
:2004C000EDCFCE010E94D701E7CFDF91CF91089580E090E0892B29F00E94CD0181110C94B5
:2004E00000000895CF93CFB7F89480912401811124C0E4EAF0E08491E8EBF0E09491E82FAD
:20050000F0E0EE0FFF1FE057FF4FA591B491EC91E92321F461E08AE00E94D4008AE00E9425
:200520008C008CB580618CBD8CB580648CBD8DE00E948C008BE00E948C00809124018F5FFE
:2005400080932401CFBFCF9108958EBD00000DB407FEFDCF8EB508950F931F93CF93DF93F3
:20056000C82FD62F0BEC11E060E0F80180810E94D4008C2F880F8E770E94A5028D2F0E94E9
:20058000A50261E0F8018081DF91CF911F910F910C94D4000F931F93CF93C82F0BEC11E050
:2005A00060E0F80180810E94D4008C2F880F8E7780680E94A50280E00E94A502C82F61E022
:2005C000F80180810E94D4008C2FCF911F910F910895CF93DF93D82FC62F0E94CA02682FCE
:2005E0006C2B8D2FDF91CF910C94AC02CF93DF93D82FC62F0E94CA02C0956C2F68238D2F15
:20060000DF91CF910C94AC02AF92BF92CF92DF92EF92FF920F931F93CF93DF935C01C62ECD
:200620008A01E90167EF84E00E94AC0260E884E00E94F60260E88AE00E94E90260E081E015
:200640000E94AC027501D12CC7018A199B098C159D0538F4F70161917F0189E00E94AC0236
:20066000F3CF6CE081E00E94AC0260E88DE00E94E90250EDC52E57E0D52E84E00E94CA023D
:20068000E82EF1E0CF1AD10811F08173B1F360E88DE00E94F602CD2809F43EC086E00E94D1
:2006A000CA028B71C9F58AE00E94CA02F82E8CE00E94CA0287702F2D30E051F0215031098D
:2006C00043E0220F331F4A95E1F7280F311D05C093E0220F331F9A95E1F739832883FF20F0
:2006E00031F080E18F1528F480E1F82E02C0FF24F3946801CF2DD0E0C601801B910B8C170F
:200700009D0718F08E2D817008C089E00E94CA02F60181936F01F0CF82E0DF91CF911F91C6
:200720000F91FF90EF90DF90CF90BF90AF900895009769F0FC0101900020E9F73197AF011C
:20074000481B590BBC018EE291E00C94620180E090E008958F929F92AF92BF920F931F938C
:20076000CF93DF93CDB7DEB7A1970FB6F894DEBF0FBECDBF19A2423008F44AE08E010F5DBF
:200780001F4F842E912CA12CB12CA50194010E94AE06E62FB901CA0101501109EA3014F41A
:2007A000E05D01C0E95CD801EC93232B242B252B61F7C8010E949803A1960FB6F894DEBF2E
:2007C0000FBECDBFDF91CF911F910F91BF90AF909F908F9008950E94BD081F920F920FB6A9
:2007E0000F9211242F933F938F939F93AF93BF938091260190912701A0912801B091290161
:200800003091250123E0230F2D3720F40196A11DB11D05C026E8230F0296A11DB11D209345
:2008200025018093260190932701A0932801B093290180912A0190912B01A0912C01B0911C
:200840002D010196A11DB11D80932A0190932B01A0932C01B0932D01BF91AF919F918F9109
:200860003F912F910F900FBE0F901F9018951F920F920FB60F9211242F933F934F935F932C
:200880006F937F938F939F93AF93BF93EF93FF938EE291E00E94D701FF91EF91BF91AF914D
:2008A0009F918F917F916F915F914F913F912F910F900FBE0F901F9018951F920F920FB6FA
:2008C0000F9211242F938F939F93EF93FF93E0913E01F0913F018081E0914401F091450129
:2008E00082FD12C09081809147018F5F8F7320914801821751F0E0914701F0E0E25DFE4F64
:20090000958F8093470101C08081FF91EF919F918F912F910F900FBE0F901F901895CF93AD
:20092000DF93EEE2F1E01382128288EE93E0A0E0B0E084839583A683B7838AE091E0918311
:20094000808385EC90E09587848784EC90E09787868780EC90E0918B808B81EC90E0938B83
:20096000828B82EC90E0958B848B86EC90E0978B868B118E128E138E148ECBECD1E08AE0F4
:2009800088830E948C0061E088810E94D40085E089830E948C0060E089810E94D400DF918F
:2009A000CF910C947202CF93DF93CDB7DEB766970FB6F894DEBF0FBECDBF789484B582606B
:2009C00084BD84B5816084BD85B5826085BD85B5816085BD80916E00816080936E0010923D
:2009E000810080918100826080938100809181008160809381008091800081608093800062
:200A00008091B10084608093B1008091B00081608093B00080917A00846080937A008091FA
:200A20007A00826080937A0080917A00816080937A0080917A00806880937A001092C10071
:200A4000E0913E01F0913F0182E08083E0913A01F0913B011082E0913C01F0913D018FECDD
:200A6000808310924601E0914201F091430186E08083E0914001F09141018081806180834E
:200A8000E0914001F0914101808188608083E0914001F0914101808180688083E0914001E2
:200AA000F091410180818F7D80830E9472028AE00E948C0060E08AE00E94D40085E00E948E
:200AC0008C0061E085E00E94D40060E08091CB010E94D4002091CC0130E0F901EE58FF4FBF
:200AE0008491F901E255FF4F0491F901E656FF4F1491112379F081110E94AB00E12FF0E048
:200B0000EE0FFF1FE859FF4FA591B491EC91E02309F0B6C061E08091CC010E94D40062E3E7
:200B200070E080E090E00E9428016DE88AE20E94AC026EE38BE20E94AC026EE18DE20E944B
:200B4000AC0260E08CE20E94AC0260E485E10E94AC026DE381E10E94AC0284E10E94CA021A
:200B6000837021F463E084E10E94E90286E2F82E93E9E92E20E2D22E30E5C32E61E070E07E
:200B800080E090E00E94F7078C01009731F0FC0110826FE171E00E94CB081A828EE291E07E
:200BA0000E949F01813419F0823449F063C088E191E00E9498038DE191E00E94980367E0A9
:200BC0008DE00E94AC02F9822DEC31E0AE014F5F5F4F61E0CA010E94040360E08DE00E94A4
:200BE000AC02E982DA822DEC31E0AE014F5F5F4F62E0CA010E94040381110AC069818A8144
:200C000086279B8189279C8189279D818917E9F1C98A1A8A64E085E00E94F60260E88AE00A
:200C20000E94E902698989E00E94AC026A8989E00E94AC0263E081E00E94AC02BB24BA94AF
:200C400085E00E94CA02BA94BB2011F082FFF8CF82E20E94CA028B8B81E20E94CA028C8B7F
:200C60009E012B5E3F4FAE014F5E5F4F64E0CA010E940403C8010E946E070E9468027ECFC3
:200C80006FE081E00E94AC0250CF70E080E090E04AE00E94AA0380E291E00E9498036A81A1
:200CA00070E080E090E04AE00E94AA0380E291E00E9498036B8170E080E090E04AE00E94B3
:200CC000AA0380E291E00E9498036C8170E080E090E04AE00E94AA038DE191E00E949803B5
:200CE00064EF71E080E090E00E94280191CF2F923F924F925F926F927F928F929F92AF924C
:200D0000BF92CF92DF92EF92FF920F931F93CF93DF93CDB7DEB7CA1BDB0B0FB6F894DEBFA4
:200D20000FBECDBF09942A88398848885F846E847D848C849B84AA84B984C884DF80EE80F1
:200D4000FD800C811B81AA81B981CE0FD11D0FB6F894DEBF0FBECDBFED010895A1E21A2E20
:200D6000AA1BBB1BFD010DC0AA1FBB1FEE1FFF1FA217B307E407F50720F0A21BB30BE40B6B
:200D8000F50B661F771F881F991F1A9469F760957095809590959B01AC01BD01CF01089523
:200DA000EE0FFF1F0590F491E02D09940F931F93CF93DF938230910510F482E090E0E0919D
:200DC000D101F091D20120E030E0A0E0B0E0309719F1408151810281138148175907C8F0DB
:200DE0008417950769F4109731F012960C93129713961C9327C00093D1011093D20122C0AB
:200E00002115310519F04217530718F49A01BD01EF01DF01F801DBCF21153105F9F0281B3A
:200E2000390B2430310580F48A819B816115710521F0FB019383828304C09093D201809368
:200E4000D101FE01329644C0FE01E20FF31F8193919322503109398328833AC02091CF012D
:200E60003091D001232B41F420910201309103013093D0012093CF01209100013091010158
:200E80002115310541F42DB73EB74091040150910501241B350BE091CF01F091D001E21710
:200EA000F307A0F42E1B3F0B2817390778F0AC014E5F5F4F2417350748F04E0F5F1F5093B5
:200EC000D0014093CF018193919302C0E0E0F0E0CF01DF91CF911F910F910895CF93DF93B3
:200EE000009709F481C0FC01329713821282A091D101B091D201109781F420813181820F17
:200F0000931F2091CF013091D0012817390751F5F093D001E093CF0167C0ED0120E030E08B
:200F2000CE17DF0740F44A815B819E0141155105F1F0EA01F5CFD383C28340815181840F6F
:200F4000951FC817D90759F488819981840F951F0296918380838A819B8193838283211540
:200F6000310529F4F093D201E093D1013DC0E901FB83EA8349915991C40FD51FEC17FD071F
:200F800061F480819181840F951F0296E90199838883828193819B838A83E0E0F0E012967F
:200FA0008D919C911397009719F0FD01DC01F7CF8D919C9111979D012E5F3F4F820F931F0C
:200FC0002091CF013091D0012817390769F4309729F41092D2011092D10102C0138212826A
:200FE000B093D001A093CF01DF91CF910895A0E0B0E0EDEFF7E00C947B06EC01009721F4F0
:20100000CB010E94D606B4C0FC01E60FF71F9C0122503109E217F30708F4A8C0D9010D91F2
:201020001C91119706171707B0F00530110508F49BC0C80104978617970708F495C002509C
:201040001109061B170B019311936D937C93CF010E946E0789C05B01A01AB10A4C01800E10
:20106000911EA091D101B091D201612C712CE12CF12C109709F446C08D919C911197A815FC
:20108000B905B1F56C0142E0C40ED11CCA14DB0478F14C018A189B08640142E0C40ED11CA0
:2010A0001296BC9012971396AC91B5E0CB16D10440F0B282A38391828082D9016D937C93DA
:2010C00009C00E5F1F4F800F911FF90191838083EB2DFA2FE114F10431F0D7011396FC93C0
:2010E000EE93129741C0F093D201E093D1013CC06816790608F43C017D0112960D90BC91E8
:20110000A02DB7CF8091CF019091D00188169906E1F466167706C8F48091000190910101AD
:20112000009741F48DB79EB74091040150910501841B950BE817F907C8F4F093D001E093CC
:20114000CF01F901718360830FC0CB010E94D6067C01009759F0A801BE010E94C208CE01D5
:201160000E946E07C70104C0CE0102C080E090E0CDB7DEB7EEE00C94970681E090E0F894EA
:201180000C94D208FB01DC0102C001900D9241505040D8F70895FB01DC0101900D92002054
:2011A000E1F70895F894FFCF0000D301800000000000F901620190014602C1019F01B301C0
:2011C00063617264000D0A00202C2000FFFFFFFFFFFFFFFFFFFFFFFFFFFFFFFFFFFFFFFF06
:2011E000FFFFFFFFFFFFFFFFFFFFFFFFFFFFFFFFFFFFFFFFFFFFFFFFFFFFFFFFFFFFFFFF0F
:201200009E0288169906E1F466167706C8F48091000190910101009741F48DB79EB74091FC
:20122000040150910501841B950BE817F907C8F4F0939E02E0939D02F901718360830FC0F3
:20124000CB010E9451077C01009759F0A801BE010E943D09CE010E94E907C70104C0CE015F
:2012600002C080E090E0CDB7DEB7EEE00C94120781E090E0F8940C944D09FB01DC0102C04E
:2012800001900D9241505040D8F70895FB01DC0101900D920020E1F70895F894FFCF000099
:2012A000A102800000000000F901620190014602C1019F01B3010D0A004D69666172652034
:2012C000556C7472614C69676874004D6966617265204F6E65202853353029004D696661D2
:2012E0007265204F6E65202853373029004D69666172652050726F20285829004D696661BF
:201300007265204445534669726500556E6B6E6F776E000A48656C6C6F204372616967215F
:201320000A000A48656C6C6F204572696E210A00524649442074616720646574656374654D
:20134000640054616720547970653A090900546865207461672773206E756D6265722069B6
:20136000733A0900202C20005265616420436865636B73756D3A09090043616C63756C617B
:2013800074656420436865636B73756D3A090000FFFFFFFFFFFFFFFFFFFFFFFFFFFFFFFF8A
:2013A000FFFFFFFFFFFFFFFFFFFFFFFFFFFFFFFFFFFFFFFFFFFFFFFFFFFFFFFFFFFFFFFF4D
:2013C000FFFFFFFFFFFFFFFFFFFFFFFFFFFFFFFFFFFFFFFFFFFFFFFFFFFFFFFFFFFFFFFF2D
:2013E000FFFFFFFFFFFFFFFFFFFFFFFFFFFFFFFFFFFFFFFFFFFFFFFFFFFFFFFFFFFFFFFF0D
:2014000003C055EE5093BC00909128029130E1F390912502981710F480912502E4E0F2E07E
:20142000AFE9B1E090E0981721F021912D939F5FFACF109249019093480190914801809147
:201440004901981709F456C00115110509F43FC02FB7F8948091250390912603A091270308
:20146000B09128032FBF84199509A609B7092B813C814D815E8182179307A407B50738F18F
:2014800039C001151105E1F12FB7F8948091250390912603A0912703B09128032FBF84190E
:2014A0009509A609B70920E030E080179107A207B30730F14F81242F30E05885852F550F34
:2014C000990B82179307E4F48FEF888719C0D401E885AE0FB11DE7FDBA95BA83A9838AEE16
:2014E00092E00E94E006A981BA818C93B885BF5FB887A3CF8F81813208F080E2E80E31CF4F
:20150000888528960FB6F894DEBF0FBECDBFDF91CF911F910F91FF90EF90DF90CF90BF906E
:20152000AF909F908F907F906F905F904F903F902F900895BF92CF92DF92EF92FF920F9340
:201540001F93CF93DF931F92CDB7DEB7F82EE62EC42EB22ED02E08EE13E09E012F5F3F4F8D
:2015600041E00E947709882339F12C2D30E02B1931092F5F3F4F81E090E002C0880F991F6E
:20158000BA94E2F70197022E01C0880F0A94EAF74D2D50E0BA0102C0660F771F2A95E2F7BB
:2015A000482F4095998149238623482B49836E2D8F2D0E94670901C080E00F90DF91CF9178
:2015C0001F910F91FF90EF90DF90CF90BF900895CF92DF92EF92FF920F931F93CF93DF93E7
:2015E0001F92CDB7DEB7F82EE62ED42EC22E08EE13E09E012F5F3F4F41E00E947709898104
:2016000041E050E001C0440FDA94EAF7CC2011F0482B02C04095482349836E2D8F2D0E94EF
:2016200067090F90DF91CF911F910F91FF90EF90DF90CF900895282F30914C02313208F041
:201640004AC0809128028111FCCF90914B0242E040932802209327022FEF209326021092E4
:20166000250230932402EBE2F2E0A4E0B2E020E0321721F041914D932F5FFACF109203029B
:2016800020910302990F922B9093030290910202913061F410920202909103029093BB0022
:2016A0009091BC0093FDF8CF95EC01C095EE9093BC00909128029230E1F3909126029F3F4A
:2016C00079F080912602803241F080912602803331F084E005C081E003C082E001C083E0A5
:2016E00010922A0210924C021092290208950F931F93CF93DF93C2E1D3E008EE13E023E157
:2017000033E041E06AE388810E9477098981DF91CF911F910F91089521E042E06AE68091D2
:2017200012030C94E80A482F6EE6809112030C9467092F923F924F925F926F927F928F926A
:201740009F92AF92BF92CF92DF92EF92FF920F931F93CF93DF933C015B01342E522E202EF1
:201760004F716DE6809112030E946709852D0E94930B80E190E00E946B1A6C01002329F08B
:2017800080E190E00E946B1A7C01C0E0D0E0CA15DB0508F06CC0CE014096A816B90618F473
:2017A0004A2C4C1A02C080E1482E842D90E020E031E0251931092817390714F4452C41943D
:2017C000222071F0D70180E090E0841560F4FE01E80FF91FE60DF71DE491ED930196F5CF6C
:2017E0007301EC0EFD1E9701442D6FE6809112030E943609842C912CC114D10419F1432D6A
:201800004F716DE6809112030E946709852D0E94930B08EE13E09601442D6FE6809112031F
:201820000E947709A401B601C7010E94571C892B49F0C6010E94031B222011F1C7010E942B
:20184000031B1EC0C80DD91D540CCA15DB0508F09ECF511001C03394432D4F716DE68091C0
:2018600012030E946709852D0E94930B90CFC6010E94031B222031F0C7010E94031B02C0BC
:2018800080E001C081E0DF91CF911F910F91FF90EF90DF90CF90BF90AF909F908F907F90DF
:2018A0006F905F904F903F902F9008950F931F93462F08EE13E09C0164E7809112030E94CE
:2018C00077091F910F9108950F931F93CF93DF93C2E1D3E008EE13E023E133E042E062E7B2
:2018E00088810E94770989819A81982789279827DF91CF911F910F910895EF92FF920F93F9
:201900001F93CF93DF931F92CDB7DEB77A0189019E012F5F3F4F41E00E947709882339F0A0
:2019200029812E7730E035952795F70120830F90DF91CF911F910F91FF90EF900895009726
:2019400069F0FC0101900020E9F73197AF01481B590BBC018DE492E00C94900580E090E0BC
:2019600008958F929F92AF92BF920F931F93CF93DF93CDB7DEB7A1970FB6F894DEBF0FBEB2
:20198000CDBF19A2423008F44AE08E010F5D1F4F842E912CA12CB12CA50194010E94431AAC
:2019A000E62FB901CA0101501109EA3014F4E05D01C0E95CD801EC93232B242B252B61F720
:2019C000C8010E949F0CA1960FB6F894DEBF0FBECDBFDF91CF911F910F91BF90AF909F9096
:2019E0008F9008958F929F92AF92BF92CF92DF92EF92FF920F931F93CF93DF936B017C0152
:201A0000142F9B01AC010E94291A882319F088E391E027C046015701E894B7F82FEF3FEFC8
:201A20004FE75FE7C501B4010E94291A81110DC02FEF3FEF4FE75FE7C501B4010E94E61789
:201A400018161CF48CE391E00CC02FEF3FEF4FE75FE4C701B6010E946519181684F480E42E
:201A600091E0DF91CF911F910F91FF90EF90DF90CF90BF90AF909F908F900C949F0C2FEFB4
:201A80003FEF4FE75FECC701B6010E94E61787FDE6CF20E030E0A901C701B6010E94E61768
:201AA00087FF0BC06DE28DE492E00E942306EC01F7FAF094F7F8F09402C0C0E0D0E000E011
:201AC00060E070E080E09FE3101741F020E030E040E251E40E94EB170F5FF6CFA7019601BF
:201AE0000E9408176B017C010E945D184B015C014AE00E94B10CC80FD91F1123B9F1C50180
:201B0000B4010E948C189B01AC01C701B6010E9407176B017C016EE28DE492E00E9423065B
:201B2000C80FD91F20E030E040E251E4C701B6010E9472194B015C010E945D186B01E12C8A
:201B4000F12C4AE0C701B6010E94B10CC80FD91FC701B6010E948C189B01AC01C501B40108
:201B60000E9407176B017C011150E1F6CE01DF91CF911F910F91FF90EF90DF90CF90BF906A
:201B8000AF909F908F9008950F931F93CF93DF938C01C0E0D0E0F801EC0FFD1F6491662388
:201BA00041F08DE492E00E942306892B11F02196F2CFCE01DF91CF911F910F910895CF932B
:201BC000DF930E94C40DEC0185E391E00E949F0C8C0F9D1FDF91CF910895CF93DF93EA018A
:201BE00091E09093290280934B0210922A0210924C028AEE92E00E94290769818AEE92E078
:201C00000E94290768818AEE92E00E94290781E00E941B0B91E0811190E0892FDF91CF9129
:201C2000089590E0FC01ED54F54F2491FC01E156F54F3491FC01E557F54FE491EE2309F423
:201C40003CC0222339F1233091F038F42130A9F0223001F584B58F7D12C0273091F02830A0
:201C6000A1F02430B9F4809180008F7D03C0809180008F77809380000DC084B58F7784BDFB
:201C800009C08091B0008F7703C08091B0008F7D8093B000F0E0EE0FFF1FEF57F54FA591B6
:201CA000B4919FB7F894611104C08C913095382302C0EC913E2B3C939FBF08958F929F92C6
:201CC000AF92BF92CF92DF92EF92FF926B017C010E94980E4B015C01C114D104E104F10430
:201CE000F1F00E94980EDC01CB0188199909AA09BB09883E9340A105B10570F321E0C21A23
:201D0000D108E108F10888EE880E83E0981EA11CB11CC114D104E104F10419F7DDCFFF908A
:201D2000EF90DF90CF90BF90AF909F908F9008953FB7F89480912A0390912B03A0912C036E
:201D4000B0912D0326B5A89B05C02F3F19F00196A11DB11D3FBFBA2FA92F982F8827820FCF
:201D6000911DA11DB11DBC01CD0142E0660F771F881F991F4A95D1F708951F920F920FB6B7
:201D80000F9211242F933F938F939F93AF93BF938091250390912603A0912703B0912803A7
:201DA0003091290323E0230F2D3720F40196A11DB11D05C026E8230F0296A11DB11D20938A
:201DC00029038093250390932603A0932703B093280380912A0390912B03A0912C03B09157
:201DE0002D030196A11DB11D80932A0390932B03A0932C03B0932D03BF91AF919F918F914A
:201E00003F912F910F900FBE0F901F901895CF93DF93CDB7DEB7CC5AD1090FB6F894DEBFF0
:201E20000FBECDBF789484B5826084BD84B5816084BD85B5826085BD85B5816085BD8091BA
:201E40006E00816080936E0010928100809181008260809381008091810081608093810080
:201E6000809180008160809380008091B10084608093B1008091B00081608093B00080917D
:201E80007A00846080937A0080917A00826080937A0080917A00816080937A0080917A00D9
:201EA000806880937A001092C100109249011092480110922A0210924C021092280281E088
:201EC000809327021092020261E082E10E94110E61E083E10E94110E8091B9008E7F80936B
:201EE000B9008091B9008D7F8093B90088E48093B80085E48093BC008EEC96E090934701BD
:201F0000809346018FEC96E0909345018093440188E18093B800E0915D02F0915E0282E06E
:201F20008083E0915902F0915A021082E0915B02F0915C0280E1808310926502E091610275
:201F4000F091620286E08083E0915F02F0916002808180618083E0915F02F09160028081E3
:201F600088608083E0915F02F0916002808180688083E0915F02F091600280818F7D808310
:201F800086E59AE00E94DF0D01E023E042E06BE6809112030E949A0A00E022E044E06BE1B9
:201FA000809112030E949A0A22E044E06CE1809112030E949A0A20E046E06BE68091120339
:201FC0000E94E80A88E39AE00E94DF0D28EE33E043E153E065E7809112030E947D0C8091CC
:201FE0001303843319F482EE99E002C088EC99E00E94DF0D80E09AE00E94DF0D8DE492E096
:202000000E94EB05892B31F08DE492E00E94C905892BA1F78DE492E00E94EB05892BD1F3CD
:202020008DE492E00E94EB05892B31F08DE492E00E94C905892BA1F784EB99E00E94DF0D41
:2020400021E047E06BE6809112030E94E80A6EE170E080E090E00E945E0E20E046E06BE659
:20206000809112030E94E80A40E76DE6809112030E94670986E00E94930B08EE13E023E161
:2020800033E041E06FE6809112030E94770940E06DE6809112030E9467099E012F5F3F4F09
:2020A00041E060E0809112030E947709898181708093130328EE33E043E153E060E0809182
:2020C00012030E947D0C7090130328EE33E043E153E061E0809112030E947D0C8090130372
:2020E00028EE33E043E153E062E0809112030E947D0C909013034FE765E2809112030E9452
:20210000670920E045E06AE6809112030E94E80A48E665E2809112030E94670921E041E051
:202120006AE6809112030E94E80A64E170E080E090E00E945E0E01E020E040E069E877E079
:2021400085E891E00E94990B882309F481C388E090E00E946B1A7C0100E010E0F801EB53EC
:20216000FF4F6490F801EA53FF4F5490580123E0A20EB11CF801E953FF4FE491EE2309F4D6
:2021800085C0CE2ED12CE33028F0B601C7010E948C1B7C01D70180E090E08C159D0548F46A
:2021A000F501E80FF91FEB53FF4FE491ED930196F4CF00E0252D462DB601C7010E94990BD5
:2021C00085010C0D1D1D882309F46FC0003C110508F4C4CFC7010E94031B03E023E042E0DE
:2021E0006BE6809112030E949A0A42E168E3809112030E94670944E069E1809112030E9446
:20220000670901E023E045E06AE1809112030E949A0A03E023E042E06AE1809112030E9473
:202220009A0A22E044E06BE1809112030E949A0A43E060E7809112030E94670940E061E712
:20224000809112030E94670920E040E060E0809112030E94E80A072D26E046E060E080917B
:2022600012030E949A0A082D26E046E061E0809112030E949A0A092D26E046E062E0809140
:2022800012030E949A0AE12CF12C14C00C5F1F4FF501EB53FF4FE491E13039F442E368E367
:2022A000809112030E94670991CFC7010E94031B12E005C2F701EA56FF4FE491A1E8B0E031
:2022C000AC0FBD1FAE0DB11DEC9381E08E0D9FEFE91AF90AA3E0AE1568F7CD57DF4F6881EF
:2022E000C358D04070E09B012E5F3F4F90E02817390704F700E0CE57DF4F2881C258D040BC
:20230000CF57DF4F4881C158D04081E890E08C0F9D1F03960E94990B80E0F701EA56FF4F82
:20232000E491A1E8B0E0AC0FBD1FA80FB11DEC938F5FBFEFEB1AFB0A843078F3CD57DF4F5D
:202340006881C358D04070E0AB014E5F5F4F282F30E0421753070CF700E0CE57DF4F288119
:20236000C258D040CF57DF4F4881C158D04081E890E08C0F9D1F03960E94990B0E948C0BA5
:202380000E94640C682FCE0101960E94560C42E06FE1809112030E9467094CE961E28091F7
:2023A00012030E94670940E560E2809112030E94670940E062E2809112030E9467090E9419
:2023C0008C0B21E046E06AE6809112030E94E80A21E047E06AE6809112030E94E80A21E002
:2023E00043E06AE6809112030E94E80A80E0F701EA56FF4FE491A1E8B0E0AC0FBD1FA80FEE
:20240000B11DEC938F5F2FEFE21AF20A843078F3CD57DF4F6881C358D04070E0AB014E5F3D
:202420005F4F282F30E0421753070CF700E0CE57DF4F2881C258D040CF57DF4F4881C15895
:20244000D04081E890E08C0F9D1F03960E94990B80E0F701EA56FF4FE491A1E8B0E0AC0F2E
:20246000BD1FA80FB11DEC938F5F9FEFE91AF90A843078F3CD57DF4F6881C358D04070E025
:20248000AB014E5F5F4F282F30E0421753070CF700E0CE57DF4F2881C258D040CF57DF4FBE
:2024A0004881C158D04081E890E08C0F9D1F03960E94990B80E0F701EA56FF4FE491A1E837
:2024C000B0E0AC0FBD1FA80FB11DEC938F5FAFEFEA1AFA0A843078F3CD57DF4F6881C358C8
:2024E000D04070E0AB014E5F5F4F282F30E0421753070CF700E0CE57DF4F2881C258D04052
:20250000CF57DF4F4881C158D04081E890E08C0F9D1F03960E94990B0E94640C833091050B
:20252000D8F3682FCE0101960E94560C0E94770B80E0F701EA56FF4FE491A1E8B0E0AC0F7C
:20254000BD1FA80FB11DEC938F5FBFEFEB1AFB0A843078F3CD57DF4F3880C358D040A32CD2
:20256000B12CA5014E5F5F4F282F30E04217530704F7CE57DF4F5880C258D040CF57DF4FBF
:202580002880C158D040422D4F716DE6809112030E946709852D0E94930BC12CD12C812C27
:2025A0009924939471E8672E712C6C0E7D1E23E0620E711CCA14DB0498F5C6014096A816F2
:2025C000B90618F4432C4C1802C050E1452E842D90E09401251931092817390714F4452CD1
:2025E000419493012C0D3D1D08EE13E0442D6FE6809112030E947709C40CD11C540CCA14ED
:20260000DB04C0F6511001C02394422D4F716DE6809112030E946709852D0E94930BCACF07
:202620000E94640C83309105D8F3682FCE0101960E94560C0E94770BF701EA56FF4F80E069
:202640009491A1E8B0E0AC0FBD1FA80FB11D9C938F5F843070F0CD57DF4F6881C358D04089
:2026600070E0AB014E5F5F4F282F30E04217530714F03196E5CF00E0CE57DF4F2881C25874
:20268000D040CF57DF4F4881C158D04081E890E08C0F9D1F03960E94990B20E047E06AE65E
:2026A000809112030E94E80A8AE290E090931503809314030E948C0B0E94770B10E010932F
:2026C0004B01809112032CED30E0CD56DF4F39832883C359D040AE014D565F4F63E10E9495
:2026E000ED0D809112032CE430E0CF56DF4F39832883C159D040AE014F565F4F65E10E94CC
:20270000ED0D809112032BEA3FEFCF57DF4F39832883C158D040AE014F575F4F67E10E9485
:20272000ED0D809112032CEF36E03A832983AE014F5F5F4F6AE00E94ED0D11112FC084EA6F
:2027400099E00E94DF0D21E047E06AE6809112030E94E80A85E699E00E94DF0D8CE597E0E6
:20276000909301018093000180916900836080936900E89A0E94770B809399018BE399E00D
:202780000E94DF0D81E080939E01809114039091150390939B0180939A010FC08AE199E017
:2027A0000E94C40D612F70E080E090E04AE00E94B10C88E199E00E94DF0DECEAFAE0249198
:2027C000E8E9FAE08491882399F090E0880F991FFC01E25FF64FA591B491FC01EF57F54FC1
:2027E000859194918FB7F894EC91E22BEC938FBF3324339480919E01882339F180919C0124
:2028000090919D0100919A0110919B0120914A01211103C080179107C8F310924A010E9426
:20282000770BF82E809399010E94640C90939D0180939C01F4FC03C08115944059F40E94B4
:202840008C0B82E79AE00E94DF0D0E949206D2CF11E035CFF1FEF9CFE0909C01F0909D01BE
:20286000E016F10638F40E94640C90939D0180939C01F2CF602F89E591E00E94560CE01A8F
:20288000F10AF0929D01E0929C01C0905D01D12CDC2CCC2480915E01C80ED11CE090610166
:2028A000F12CFE2CEE2480916201E80EF11C0091650110E0102F002780916601080F111D3E
:2028C0006091590170E0762F662780915A01680F711D072E000C880B990B0E948E1820E0FA
:2028E00030E040E858E30E9472194B015C0160930203709303038093040390930503B60192
:20290000DD0C880B990B0E948E1820E030E040E858E30E9472192B013C0160930603709347
:2029200007038093080390930903B701FF0C880B990B0E948E1820E030E040E858E30E94E9
:202940007219CB56DF4F688379838A839B83C559D04060930A0370930B0380930C03909307
:202960000D03B801110F880B990B0E948E1820E030E040E858E30E947219C756DF4F688319
:2029800079838A839B83C959D04060930E0370930F0380931003909311039B01AC01C3015B
:2029A000B2010E9472196B017C01CB56DF4F288139814A815B81C559D040C501B4010E94AA
:2029C00072199B01AC01C701B6010E9407179B01AC010E940817C356DF4F688379838A839F
:2029E0009B83CD59D0406093F6027093F7028093F8029093F902A3019201C501B4010E941D
:202A000072196B017C01C756DF4F288139814A815B81C959D040CB56DF4F688179818A817E
:202A20009B81C559D0400E9472199B01AC01C701B6010E9408179B01AC010E940817CF5568
:202A4000DF4F688379838A839B83C15AD0406093FA027093FB028093FC029093FD02A50143
:202A60009401C501B4010E9472196B017C01A3019201C301B2010E9472199B01AC01C70144
:202A8000B6010E9407176B017C01CB56DF4F288139814A815B81C559D040CA01B9010E9428
:202AA00072199B01AC01C701B6010E9407176B017C01C756DF4F288139814A815B81C959A3
:202AC000D040CA01B9010E9472199B01AC01C701B6010E9408176B017C016093FE027093CC
:202AE000FF028093000390930103A5019401C501B4010E940817CB55DF4F688379838A83DF
:202B00009B83C55AD040A3019201C301B2010E940817C755DF4F688379838A839B83C95A7A
:202B2000D040A5019401CB55DF4F688179818A819B81C55AD0400E9472194B015C01A30149
:202B40009201C755DF4F688179818A819B81C95AD0400E9472199B01AC01C501B4010E94C8
:202B6000081720E030E040E85FE30E9407174B015C01CB56DF4F288139814A815B81C559DC
:202B8000D040C755DF4F688179818A819B81C95AD0400E9472192B013C01C756DF4F288114
:202BA00039814A815B81C959D040CB55DF4F688179818A819B81C55AD0400E9472199B0132
:202BC000AC01C301B2010E940717A50194010E94871760934D0170934E0180934F0190937D
:202BE0005001A7019601C701B6010E9472196B017C01CF55DF4F288139814A815B81C15A39
:202C0000D040CA01B9010E947219A70196010E9408170E94E5199B01AC01C356DF4F6881D9
:202C200079818A819B81CD59D0400E94EB170E94B717609351017093520180935301909304
:202C40005401C356DF4F288139814A815B81CD59D040CA01B9010E947219A70196010E9405
:202C600008170E94E5199B01AC01CF55DF4F688179818A819B81C15AD0400E94EB170E947F
:202C8000B7176093550170935601809357019093580180E391E00E949F0C20E030E044E384
:202CA00053E460914D0170914E0180914F01909150010E9472192BED3FE049E450E40E9414
:202CC000EB1742E00E94F20C83E391E00E949F0C20E030E044E353E4609151017091520107
:202CE00080915301909154010E9472192BED3FE049E450E40E94EB1742E00E94F20C83E368
:202D000091E00E949F0C20E030E044E353E4609155017091560180915701909158010E9463
:202D200072192BED3FE049E450E40E94EB1742E00E94F20C85E391E00E949F0C60914C01A6
:202D4000632560934C018DE00E94110E7ECDEDE4F2E01382128288EE93E0A0E0B0E0848366
:202D60009583A683B78320E131E03183208325EC30E03587248724EC30E03787268720EC50
:202D800030E0318B208B21EC30E0338B228B22EC30E0358B248B26EC30E0378B268B118E73
:202DA000128E138E148EEAEEF2E01382128284839583A683B78382E291E09183808388E681
:202DC00080931203E2E0F3E080E090E0A0E8BFE380839183A283B38314821582168217826C
:202DE00010861186128613861486158616861786E6EFF2E0108211821282138214821582E5
:202E000016821782108611861286138608955058BB27AA270E941F170C942B190E941D1997
:202E200038F00E94241920F039F49F3F19F426F40C94F3180EF4E095E7FB0C94ED18E92F88
:202E40000E943C1958F3BA17620773078407950720F079F4A6F50C945E190EF4E0950B2E76
:202E6000BA2FA02D0B01B90190010C01CA01A0011124FF27591B99F0593F50F4503E68F1B1
:202E80001A16F040A22F232F342F4427585FF3CF469537952795A795F0405395C9F77EF47F
:202EA0001F16BA0B620B730B840BBAF09150A1F0FF0FBB1F661F771F881FC2F70EC0BA0F88
:202EC000621F731F841F48F4879577956795B795F7959E3F08F0B0CF9395880F08F0992739
:202EE000EE0F9795879508950E941D1960F080E891E009F49EEF0E94241928F040E851E015
:202F000071F45EEF0CC00C94F3180C945E19E92FE0780E943C1940F3092E052AB1F3261790
:202F200037074807590738F00E2E07F8E02569F0E025E0640AC0EF6307F8009407FADB010E
:202F4000B9019D01DC01CA01AD01EF930E9402180E942B190E94B7175F91552339F02BED86
:202F60003FE049E450FD49EC0C9408170895DF93DD27B92FBF7740E85FE316161706480791
:202F80005B0718F4D92F0E946A199F938F937F936F930E94251AE8E6F0E00E94F6180E945D
:202FA0002B192F913F914F915F910E948519DD2351F09058A2EA2AED3FE049EC5FE3D07883
:202FC0005D270E941F17DF910C942B190E94C91808F481E008950E94FF170C942B190E9486
:202FE000241958F00E941D1940F029F45F3F29F00C94ED1851110C945F190C94F3180E9404
:203000003C1968F39923B1F3552391F3951B550BBB27AA2762177307840738F09F5F5F4F8F
:20302000220F331F441FAA1FA9F335D00E2E3AF0E0E832D091505040E695001CCAF72BD04C
:20304000FE2F29D0660F771F881FBB1F261737074807AB07B0E809F0BB0B802DBF01FF2758
:2030600093585F4F3AF09E3F510578F00C94ED180C945F195F3FE4F3983ED4F386957795FC
:203080006795B795F7959F5FC9F7880F911D9695879597F90895E1E0660F771F881FBB1F98
:2030A000621773078407BA0720F0621B730B840BBA0BEE1F88F7E09508950E94441988F05D
:2030C0009F5798F0B92F9927B751B0F0E1F0660F771F881F991F1AF0BA95C9F714C0B13019
:2030E00091F00E945E19B1E008950C945E19672F782F8827B85F39F0B93FCCF386957795E7
:203100006795B395D9F73EF490958095709561957F4F8F4F9F4F0895E89409C097FB3EF4F4
:2031200090958095709561957F4F8F4F9F4F9923A9F0F92F96E9BB279395F6958795779507
:203140006795B795F111F8CFFAF4BB0F11F460FF1BC06F5F7F4F8F4F9F4F16C0882311F07D
:2031600096E911C0772321F09EE8872F762F05C0662371F096E8862F70E060E02AF09A95B8
:20318000660F771F881FDAF7880F9695879597F90895990F0008550FAA0BE0E8FEEF1616F7
:2031A0001706E807F907C0F012161306E407F50798F0621B730B840B950B39F40A2661F0CB
:2031C000232B242B252B21F408950A2609F4A140A6958FEF811D811D089597F99F6780E8B2
:2031E00070E060E008959FEF80EC0895DF93CF931F930F93FF92EF92DF927B018C0168945B
:2032000006C0DA2EEF010E948519FE01E894A5912591359145915591A6F3EF010E941F1766
:20322000FE019701A801DA9469F7DF90EF90FF900F911F91CF91DF91089500240A94161658
:20324000170618060906089500240A9412161306140605060895092E0394000C11F4882338
:2032600052F0BB0F40F4BF2B11F460FF04C06F5F7F4F8F4F9F4F089557FD9058440F551FF4
:2032800059F05F3F71F04795880F97FB991F61F09F3F79F087950895121613061406551F09
:2032A000F2CF4695F1DF08C0161617061806991FF1CF86957105610508940895E894BB276D
:2032C00066277727CB0197F908950E94C91808F48FEF08959B01AC0160E070E080E89FE36D
:2032E0000C94EB170E9485190C942B190E941D1938F00E94241920F0952311F00C94ED18BB
:203300000C94F31811240C945F190E943C1970F3959FC1F3950F50E0551F629FF001729F28
:20332000BB27F00DB11D639FAA27F00DB11DAA1F649F6627B00DA11D661F829F2227B00DC2
:20334000A11D621F739FB00DA11D621F839FA00D611D221F749F3327A00D611D231F849F95
:20336000600D211D822F762F6A2F11249F5750409AF0F1F088234AF0EE0FFF1FBB1F661F2E
:20338000771F881F91505040A9F79E3F510580F00C94ED180C945F195F3FE4F3983ED4F36D
:2033A000869577956795B795F795E7959F5FC1F7FE2B880F911D9695879597F9089519F4F1
:2033C00016F40C94F3180C942E1A0E944419B8F39923C9F3B6F39F57550B87FF0E943C1AB1
:2033E0000024A0E640EA900180585695979528F4805C660F771F881F20F0261737074807F5
:2034000030F4621B730B840B202931294A2BA69517940794202531254A2758F7660F771FFF
:20342000881F20F026173707480730F4620B730B840B200D311D411DA09581F7B901842F7A
:203440009158880F9695879508959B01AC010C9472190E94C918880B990B08959F3F31F03E
:20346000915020F4879577956795B795880F911D9695879597F9089591505040660F771FB2
:20348000881FD2F70895A1E21A2EAA1BBB1BFD010DC0AA1FBB1FEE1FFF1FA217B307E407C2
:2034A000F50720F0A21BB30BE40BF50B661F771F881F991F1A9469F76095709580959095DA
:2034C0009B01AC01BD01CF010895EE0FFF1F0590F491E02D09940F931F93CF93DF938230BF
:2034E000910510F482E090E0E0913003F091310320E030E0A0E0B0E0309719F14081518183
:203500000281138148175907C8F08417950769F4109731F012960C93129713961C9327C092
:20352000009330031093310322C02115310519F04217530718F49A01BD01EF01DF01F801B6
:20354000DBCF21153105F9F0281B390B2430310580F48A819B816115710521F0FB019383B1
:20356000828304C09093310380933003FE01329644C0FE01E20FF31F819391932250310934
:20358000398328833AC020912E0330912F03232B41F4209106013091070130932F03209349
:2035A0002E0320910401309105012115310541F42DB73EB74091080150910901241B350B9F
:2035C000E0912E03F0912F03E217F307A0F42E1B3F0B2817390778F0AC014E5F5F4F241752
:2035E000350748F04E0F5F1F50932F0340932E038193919302C0E0E0F0E0CF01DF91CF9139
:203600001F910F910895CF93DF93009709F481C0FC01329713821282A0913003B09131034C
:20362000109781F420813181820F931F20912E0330912F032817390751F5F0932F03E09316
:203640002E0367C0ED0120E030E0CE17DF0740F44A815B819E0141155105F1F0EA01F5CF93
:20366000D383C28340815181840F951FC817D90759F488819981840F951F029691838083B0
:203680008A819B81938382832115310529F4F0933103E09330033DC0E901FB83EA83499156
:2036A0005991C40FD51FEC17FD0761F480819181840F951F0296E9019983888382819381E3
:2036C0009B838A83E0E0F0E012968D919C911397009719F0FD01DC01F7CF8D919C9111975E
:2036E0009D012E5F3F4F820F931F20912E0330912F032817390769F4309729F41092310363
:203700001092300302C013821282B0932F03A0932E03DF91CF910895A0E0B0E0E2E9FBE1EC
:203720000C94711CEC01009721F4CB010E946B1AB4C0FC01E60FF71F9C0122503109E21712
:20374000F30708F4A8C0D9010D911C91119706171707B0F00530110508F49BC0C80104975D
:203760008617970708F495C002501109061B170B019311936D937C93CF010E94031B89C0EE
:203780005B01A01AB10A4C01800E911EA0913003B0913103612C712CE12CF12C109709F4FD
:2037A00046C08D919C911197A815B905B1F56C0142E0C40ED11CCA14DB0478F14C018A188C
:2037C0009B08640142E0C40ED11C1296BC9012971396AC91B5E0CB16D10440F0B282A383A8
:2037E00091828082D9016D937C9309C00E5F1F4F800F911FF90191838083EB2DFA2FE114A1
:20380000F10431F0D7011396FC93EE93129741C0F0933103E09330033CC06816790608F405
:203820003C017D0112960D90BC91A02DB7CF80912E0390912F0388169906E1F46616770648
:20384000C8F48091040190910501009741F48DB79EB74091080150910901841B950BE81707
:20386000F907C8F4F0932F03E0932E03F901718360830FC0CB010E946B1A7C01009759F043
:20388000A801BE010E94641CCE010E94031BC70104C0CE0102C080E090E0CDB7DEB7EEE03B
:2038A0000C948D1C81E090E0F8940C94A41CFB01DC0104C08D910190801921F441505040E7
:2038C000C8F7881B990B0895FB01DC0102C001900D9241505040D8F708952F923F924F927A
:2038E0005F926F927F928F929F92AF92BF92CF92DF92EF92FF920F931F93CF93DF93CDB751
:20390000DEB7CA1BDB0B0FB6F894DEBF0FBECDBF09942A88398848885F846E847D848C843A
:203920009B84AA84B984C884DF80EE80FD800C811B81AA81B981CE0FD11D0FB6F894DEBF20
:203940000FBECDBFED010895F894FFCF8F058F05000032038000E8030000000023069005A3
:20396000BA057006EB05C905DD05000000002907FC065907D006F406E006D10679707209EF
:20398000000D0A006E616E00696E66006F766600FFFFFFFFFFFFFFFFFFFFFFFFFFFFFFFF5B
:2039A000FFFFFFFFFFFFFFFFFFFFFFFFFFFFFFFFFFFFFFFFFFFFFFFFFFFFFFFFFFFFFFFF27
:2039C000FFFFFFFFFFFFFFFFFFFFFFFFFFFFFFFFFFFFFFFFFFFFFFFFFFFFFFFFFFFFFFFF07
:2039E000FFFFFFFFFFFFFFFFFFFFFFFFFFFFFFFFFFFFFFFFFFFFFFFFFFFFFFFFFFFFFFFFE7
:203A0000FFFFFFFFFFFFFFFFFFFFFFFFFFFFFFFFFFFFFFFFFFFFFFFFFFFFFFFFFFFFFFFFC6
:207800000C94343C0C94513C0C94513C0C94513C0C94513C0C94513C0C94513C0C94513C1D
:207820000C94513C0C94513C0C94513C0C94513C0C94513C0C94513C0C94513C0C94513CE0
:207840000C94513C0C94513C0C94513C0C94513C0C94513C0C94513C0C94513C0C94513CC0
:207860000C94513C0C94513C11241FBECFEFD8E0DEBFCDBF11E0A0E0B1E0ECE9FFE702C07E
:2078800005900D92A230B107D9F712E0A2E0B1E001C01D92AD30B107E1F70E942D3D0C94CC
:2078A000CC3F0C94003C982F9595959595959595905D8F708A307CF0282F295A8091C000B5
:2078C00085FFFCCF9093C6008091C00085FFFCCF2093C6000895282F205DF0CF982F8091CF
:2078E000C00085FFFCCF9093C6000895EF92FF920F931F93EE24FF2487018091C00087FD7B
:2079000017C00894E11CF11C011D111D81E4E81682E4F8068FE0080780E0180770F3E09106
:207920000401F091050109958091C00087FFE9CF8091C6001F910F91FF90EF9008950E949A
:20794000763C982F8091C00085FFFCCF9093C60091362CF490330CF09053892F08959755DB
:20796000892F08951F930E949F3C182F0E949F3C1295107F810F1F9108951F93182F882308
:2079800021F00E94763C1150E1F71F9108951F93182F0E94763C803249F0809103018F5FC1
:2079A000809303018530C1F01F9108958091C00085FFFCCF84E18093C6008091C00085FF4A
:2079C000FCCF1093C6008091C00085FFFCCF80E18093C6001F910895E0910401F0910501CF
:2079E00009951F9108950E94763C803241F0809103018F5F80930301853081F00895809177
:207A0000C00085FFFCCF84E18093C6008091C00085FFFCCF80E18093C6000895E0910401AC
:207A2000F09105010995089540E951E08823A1F02D9A28EE33E0FA013197F1F72150304072
:207A4000D1F72D9828EE33E0FA013197F1F721503040D1F7815061F708953F924F925F92B3
:207A60006F927F928F929F92AF92BF92CF92DF92EF92FF920F931F93CF93DF93000080E1A3
:207A80008093C4001092C50088E18093C10086E08093C2005098589A259A81E00E94143D43
:207AA00024E1F22E9EE1E92E85E9D82E0FE0C02E10E1B12EAA24A394B1E49B2EA6E58A2E44
:207AC000F2E57F2EE0E26E2E79E4572E63E5462E50E5352E0E94763C8033B1F18133B9F187
:207AE000803409F46FC0813409F476C0823409F485C0853409F488C0803531F1823521F128
:207B0000813511F1853509F485C0863509F48DC0843609F496C0843709F403C1853709F46A
:207B200072C1863709F466C0809103018F5F80930301853079F6E0910401F0910501099559
:207B40000E94763C803351F60E94F33CC3CF0E94763C803249F78091C00085FFFCCFF0928C
:207B6000C6008091C00085FFFCCF9092C6008091C00085FFFCCF8092C6008091C00085FFEA
:207B8000FCCF7092C6008091C00085FFFCCF6092C6008091C00085FFFCCF5092C6008091A1
:207BA000C00085FFFCCF4092C6008091C00085FFFCCF3092C6008091C00085FFFCCFB09214
:207BC000C60088CF0E94763C863808F4BDCF0E94763C0E94F33C7ECF0E94763C803809F473
:207BE0009CC0813809F40BC1823809F43CC1883909F48FC080E00E94C73C6CCF84E10E949F
:207C0000BD3C0E94F33C66CF85E00E94BD3C0E94F33C60CF0E94763C809306010E94763CA3
:207C2000809307010E94F33C55CF0E94763C803309F41DC183E00E94BD3C80E00E94C73C4F
:207C400049CF0E94763C809309020E94763C8093080280910C028E7F80930C020E94763C88
:207C6000853409F415C18091080290910902892B89F000E010E00E94763CF801E85FFE4F53
:207C800080830F5F1F4F80910802909109020817190788F30E94763C803209F045CF8091E0
:207CA0000C0280FF01C16091060170910701660F771F7093070160930601A0910802B091E8
:207CC00009021097C9F0E8E0F1E09B01AD014E0F5F1FF999FECF32BD21BD819180BDFA9A6C
:207CE000F99A2F5F3F4FE417F50799F76A0F7B1F70930701609306018091C00085FFFCCF16
:207D0000F092C6008091C00085FFFCCFB092C600E1CE83E00E94C73CDDCE82E00E94C73C8A
:207D2000D9CE0E94763C809309020E94763C809308028091060190910701880F991F909306
:207D40000701809306010E94763C853409F4A6C080910C028E7F80930C020E94763C80323E
:207D600009F0B8CE8091C00085FFFCCFF092C600609108027091090261157105B9F140E05F
:207D800050E080910C02A82FA170B82FB27011C0BB2309F45CC0E0910601F0910701319613
:207DA000F0930701E09306014F5F5F4F46175707E8F4AA2369F3F999FECF209106013091CA
:207DC000070132BD21BDF89A90B58091C00085FFFCCF9093C6002F5F3F4F30930701209354
:207DE00006014F5F5F4F4617570718F38091C00085FDE5CE8091C00085FFF8CFE0CE81E029
:207E00000E94C73C67CE0E94763C803209F08CCE8091C00085FFFCCFF092C6008091C000F6
:207E200085FFFCCFE092C6008091C00085FFFCCFD092C6008091C00085FFFCCFC092C6003B
:207E40008091C00085FFFCCFB092C60043CEE0910601F091070194918091C00085FFFCCFA3
:207E60009093C6009CCF80E10E94C73C33CE0E94763C0E94763C182F0E94763C112309F433
:207E800083C0113009F484C08FE00E94C73C22CE80910C02816080930C02E5CE80910C0226
:207EA000816080930C0259CF809107018823880F880B8A2180930B0280910601909107019E
:207EC000880F991F90930701809306018091080280FF09C0809108029091090201969093AA
:207EE000090280930802F894F999FECF1127E0910601F0910701C8E0D1E0809108029091A1
:207F00000902103091F40091570001700130D9F303E000935700E895009157000170013067
:207F2000D9F301E100935700E895099019900091570001700130D9F301E000935700E8954C
:207F40001395103498F011270091570001700130D9F305E000935700E8950091570001707A
:207F60000130D9F301E100935700E8953296029709F0C7CF103011F00296E5CF11248091F8
:1E7F8000C00085FFB9CEBCCE8EE10E94C73CA2CD85E90E94C73C9ECDF894FFCF8000B3
:00000001FF
